{
  "_format": "hh3-artifact-1",
  "contractName": "SocialRewards",
  "sourceName": "contracts/SocialRewards.sol",
  "abi": [
    {
      "inputs": [],
      "stateMutability": "nonpayable",
      "type": "constructor"
    },
    {
      "anonymous": false,
      "inputs": [
        {
          "indexed": true,
          "internalType": "address",
          "name": "user",
          "type": "address"
        },
        {
          "indexed": false,
          "internalType": "uint256",
          "name": "posts",
          "type": "uint256"
        },
        {
          "indexed": false,
          "internalType": "uint256",
          "name": "reward",
          "type": "uint256"
        }
      ],
      "name": "PostReward",
      "type": "event"
    },
    {
      "anonymous": false,
      "inputs": [
        {
          "indexed": true,
          "internalType": "address",
          "name": "user",
          "type": "address"
        },
        {
          "indexed": false,
          "internalType": "uint256",
          "name": "reward",
          "type": "uint256"
        }
      ],
      "name": "Registration",
      "type": "event"
    },
    {
      "anonymous": false,
      "inputs": [
        {
          "indexed": true,
          "internalType": "address",
          "name": "from",
          "type": "address"
        },
        {
          "indexed": true,
          "internalType": "address",
          "name": "to",
          "type": "address"
        },
        {
          "indexed": false,
          "internalType": "uint256",
          "name": "value",
          "type": "uint256"
        }
      ],
      "name": "Transfer",
      "type": "event"
    },
    {
      "inputs": [],
      "name": "POSTS_REQUIRED",
      "outputs": [
        {
          "internalType": "uint256",
          "name": "",
          "type": "uint256"
        }
      ],
      "stateMutability": "view",
      "type": "function"
    },
    {
      "inputs": [],
      "name": "POST_REWARD",
      "outputs": [
        {
          "internalType": "uint256",
          "name": "",
          "type": "uint256"
        }
      ],
      "stateMutability": "view",
      "type": "function"
    },
    {
      "inputs": [],
      "name": "REGISTRATION_REWARD",
      "outputs": [
        {
          "internalType": "uint256",
          "name": "",
          "type": "uint256"
        }
      ],
      "stateMutability": "view",
      "type": "function"
    },
    {
      "inputs": [
        {
          "internalType": "address",
          "name": "",
          "type": "address"
        }
      ],
      "name": "balanceOf",
      "outputs": [
        {
          "internalType": "uint256",
          "name": "",
          "type": "uint256"
        }
      ],
      "stateMutability": "view",
      "type": "function"
    },
    {
      "inputs": [],
      "name": "decimals",
      "outputs": [
        {
          "internalType": "uint8",
          "name": "",
          "type": "uint8"
        }
      ],
      "stateMutability": "view",
      "type": "function"
    },
    {
      "inputs": [
        {
          "internalType": "address",
          "name": "user",
          "type": "address"
        }
      ],
      "name": "getUserStats",
      "outputs": [
        {
          "internalType": "bool",
          "name": "registered",
          "type": "bool"
        },
        {
          "internalType": "uint256",
          "name": "balance",
          "type": "uint256"
        },
        {
          "internalType": "uint256",
          "name": "posts",
          "type": "uint256"
        },
        {
          "internalType": "uint256",
          "name": "postsUntilNextReward",
          "type": "uint256"
        }
      ],
      "stateMutability": "view",
      "type": "function"
    },
    {
      "inputs": [
        {
          "internalType": "address",
          "name": "",
          "type": "address"
        }
      ],
      "name": "hasRegistered",
      "outputs": [
        {
          "internalType": "bool",
          "name": "",
          "type": "bool"
        }
      ],
      "stateMutability": "view",
      "type": "function"
    },
    {
      "inputs": [
        {
          "internalType": "address",
          "name": "",
          "type": "address"
        }
      ],
      "name": "lastRewardedPostCount",
      "outputs": [
        {
          "internalType": "uint256",
          "name": "",
          "type": "uint256"
        }
      ],
      "stateMutability": "view",
      "type": "function"
    },
    {
      "inputs": [],
      "name": "name",
      "outputs": [
        {
          "internalType": "string",
          "name": "",
          "type": "string"
        }
      ],
      "stateMutability": "view",
      "type": "function"
    },
    {
      "inputs": [],
      "name": "owner",
      "outputs": [
        {
          "internalType": "address",
          "name": "",
          "type": "address"
        }
      ],
      "stateMutability": "view",
      "type": "function"
    },
    {
      "inputs": [
        {
          "internalType": "address",
          "name": "",
          "type": "address"
        }
      ],
      "name": "postCount",
      "outputs": [
        {
          "internalType": "uint256",
          "name": "",
          "type": "uint256"
        }
      ],
      "stateMutability": "view",
      "type": "function"
    },
    {
      "inputs": [
        {
          "internalType": "address",
          "name": "user",
          "type": "address"
        }
      ],
      "name": "recordPost",
      "outputs": [],
      "stateMutability": "nonpayable",
      "type": "function"
    },
    {
      "inputs": [
        {
          "internalType": "address",
          "name": "user",
          "type": "address"
        }
      ],
      "name": "registerUser",
      "outputs": [],
      "stateMutability": "nonpayable",
      "type": "function"
    },
    {
      "inputs": [],
      "name": "symbol",
      "outputs": [
        {
          "internalType": "string",
          "name": "",
          "type": "string"
        }
      ],
      "stateMutability": "view",
      "type": "function"
    },
    {
      "inputs": [],
      "name": "totalSupply",
      "outputs": [
        {
          "internalType": "uint256",
          "name": "",
          "type": "uint256"
        }
      ],
      "stateMutability": "view",
      "type": "function"
    },
    {
      "inputs": [
        {
          "internalType": "address",
          "name": "to",
          "type": "address"
        },
        {
          "internalType": "uint256",
          "name": "value",
          "type": "uint256"
        }
      ],
      "name": "transfer",
      "outputs": [
        {
          "internalType": "bool",
          "name": "",
          "type": "bool"
        }
      ],
      "stateMutability": "nonpayable",
      "type": "function"
    },
    {
      "inputs": [
        {
          "internalType": "address",
          "name": "newOwner",
          "type": "address"
        }
      ],
      "name": "transferOwnership",
      "outputs": [],
      "stateMutability": "nonpayable",
      "type": "function"
    }
  ],
  "bytecode": "0x60c060405260116080908152702432b6309029b7b1b4b0b6102a37b5b2b760791b60a0525f9061002f9082610142565b506040805180820190915260038152621214d560ea1b60208201526001906100579082610142565b506002805460ff19166012179055348015610070575f5ffd5b50600480546001600160a01b0319163390811790915569d3c21bcecceda100000060038190555f91825260056020526040909120556101fc565b634e487b7160e01b5f52604160045260245ffd5b600181811c908216806100d257607f821691505b6020821081036100f057634e487b7160e01b5f52602260045260245ffd5b50919050565b601f82111561013d57805f5260205f20601f840160051c8101602085101561011b5750805b601f840160051c820191505b8181101561013a575f8155600101610127565b50505b505050565b81516001600160401b0381111561015b5761015b6100aa565b61016f8161016984546100be565b846100f6565b6020601f8211600181146101a1575f831561018a5750848201515b5f19600385901b1c1916600184901b17845561013a565b5f84815260208120601f198516915b828110156101d057878501518255602094850194600190920191016101b0565b50848210156101ed57868401515f19600387901b60f8161c191681555b50505050600190811b01905550565b610c36806102095f395ff3fe608060405234801561000f575f5ffd5b5060043610610106575f3560e01c80638614b0b81161009e578063a9059cbb1161006e578063a9059cbb14610262578063c4b0de9014610128578063cbb6056f14610275578063de0ffe3014610288578063f2fde38b146102a7575f5ffd5b80638614b0b8146101de5780638da5cb5b146101fd57806395d89b4114610228578063a0d0352614610230575f5ffd5b80632199d5cd116100d95780632199d5cd14610156578063313ce5671461016b5780634e43603a1461018a57806370a08231146101bf575f5ffd5b806306fdde031461010a57806312ec26771461012857806318160ddd146101455780631919c5021461014e575b5f5ffd5b6101126102ba565b60405161011f9190610a65565b60405180910390f35b610137670de0b6b3a764000081565b60405190815260200161011f565b61013760035481565b610137600a81565b610169610164366004610ab5565b610345565b005b6002546101789060ff1681565b60405160ff909116815260200161011f565b61019d610198366004610ab5565b610571565b604080519415158552602085019390935291830152606082015260800161011f565b6101376101cd366004610ab5565b60056020525f908152604090205481565b6101376101ec366004610ab5565b60076020525f908152604090205481565b600454610210906001600160a01b031681565b6040516001600160a01b03909116815260200161011f565b6101126105e2565b61025261023e366004610ab5565b60066020525f908152604090205460ff1681565b604051901515815260200161011f565b610252610270366004610ad5565b6105ef565b610169610283366004610ab5565b610725565b610137610296366004610ab5565b60086020525f908152604090205481565b6101696102b5366004610ab5565b6109d1565b5f80546102c690610afd565b80601f01602080910402602001604051908101604052809291908181526020018280546102f290610afd565b801561033d5780601f106103145761010080835404028352916020019161033d565b820191905f5260205f20905b81548152906001019060200180831161032057829003601f168201915b505050505081565b6004546001600160a01b031633146103785760405162461bcd60e51b815260040161036f90610b35565b60405180910390fd5b6001600160a01b0381165f9081526006602052604090205460ff16156103e05760405162461bcd60e51b815260206004820152601760248201527f5573657220616c72656164792072656769737465726564000000000000000000604482015260640161036f565b6004546001600160a01b03165f90815260056020526040902054670de0b6b3a764000011156104515760405162461bcd60e51b815260206004820152601f60248201527f496e73756666696369656e742062616c616e636520666f722072657761726400604482015260640161036f565b6001600160a01b038082165f908152600660209081526040808320805460ff191660011790556004549093168252600590529081208054670de0b6b3a7640000929061049e908490610b71565b90915550506001600160a01b0381165f9081526005602052604081208054670de0b6b3a764000092906104d2908490610b84565b9091555050600454604051670de0b6b3a764000081526001600160a01b038381169216907fddf252ad1be2c89b69c2b068fc378daa952ba7f163c4a11628f55a4df523b3ef9060200160405180910390a3806001600160a01b03167ff6c60b059f60c86b2d612b237ac38bd87bc1f68f87600cd360d68351af1ca95f670de0b6b3a764000060405161056691815260200190565b60405180910390a250565b6001600160a01b0381165f908152600660209081526040808320546005835281842054600784528285205460089094529184205460ff909116939192919081906105bb9084610b71565b9050600a8110156105d6576105d181600a610b71565b6105d8565b5f5b9150509193509193565b600180546102c690610afd565b335f908152600560205260408120548211156106445760405162461bcd60e51b8152602060048201526014602482015273496e73756666696369656e742062616c616e636560601b604482015260640161036f565b6001600160a01b03831661068c5760405162461bcd60e51b815260206004820152600f60248201526e496e76616c6964206164647265737360881b604482015260640161036f565b335f90815260056020526040812080548492906106aa908490610b71565b90915550506001600160a01b0383165f90815260056020526040812080548492906106d6908490610b84565b90915550506040518281526001600160a01b0384169033907fddf252ad1be2c89b69c2b068fc378daa952ba7f163c4a11628f55a4df523b3ef9060200160405180910390a35060015b92915050565b6004546001600160a01b0316331461074f5760405162461bcd60e51b815260040161036f90610b35565b6001600160a01b0381165f9081526006602052604090205460ff166107ac5760405162461bcd60e51b8152602060048201526013602482015272155cd95c881b9bdd081c9959da5cdd195c9959606a1b604482015260640161036f565b6001600160a01b0381165f9081526007602052604081208054916107cf83610b97565b90915550506001600160a01b0381165f9081526008602090815260408083205460079092528220546108019190610b71565b9050600a81106109cd575f610817600a83610bc3565b90505f61082c670de0b6b3a764000083610bd6565b6004546001600160a01b03165f908152600560205260409020549091508111156108985760405162461bcd60e51b815260206004820152601f60248201527f496e73756666696369656e742062616c616e636520666f722072657761726400604482015260640161036f565b6004546001600160a01b03165f90815260056020526040812080548392906108c1908490610b71565b90915550506001600160a01b0384165f90815260056020526040812080548392906108ed908490610b84565b909155506108fe9050600a84610bed565b6001600160a01b0385165f908152600760205260409020546109209190610b71565b6001600160a01b038581165f8181526008602090815260409182902094909455600454905185815291939216917fddf252ad1be2c89b69c2b068fc378daa952ba7f163c4a11628f55a4df523b3ef910160405180910390a36001600160a01b0384165f818152600760209081526040918290205482519081529081018490527f310ce65e26ebfbaa9e1823f586f3b1d3848e4a89568316661142c873fadc1089910160405180910390a250505b5050565b6004546001600160a01b031633146109fb5760405162461bcd60e51b815260040161036f90610b35565b6001600160a01b038116610a435760405162461bcd60e51b815260206004820152600f60248201526e496e76616c6964206164647265737360881b604482015260640161036f565b600480546001600160a01b0319166001600160a01b0392909216919091179055565b602081525f82518060208401528060208501604085015e5f604082850101526040601f19601f83011684010191505092915050565b80356001600160a01b0381168114610ab0575f5ffd5b919050565b5f60208284031215610ac5575f5ffd5b610ace82610a9a565b9392505050565b5f5f60408385031215610ae6575f5ffd5b610aef83610a9a565b946020939093013593505050565b600181811c90821680610b1157607f821691505b602082108103610b2f57634e487b7160e01b5f52602260045260245ffd5b50919050565b6020808252600e908201526d139bdd08185d5d1a1bdc9a5e995960921b604082015260600190565b634e487b7160e01b5f52601160045260245ffd5b8181038181111561071f5761071f610b5d565b8082018082111561071f5761071f610b5d565b5f60018201610ba857610ba8610b5d565b5060010190565b634e487b7160e01b5f52601260045260245ffd5b5f82610bd157610bd1610baf565b500490565b808202811582820484141761071f5761071f610b5d565b5f82610bfb57610bfb610baf565b50069056fea2646970667358221220274eeb3b220d67dbc723b51bd390612c226cc65eefe263880f99eca3184ad6c164736f6c634300081c0033",
  "linkReferences": {},
  "deployedLinkReferences": {},
  "immutableReferences": {},
  "inputSourceName": "project/contracts/SocialRewards.sol",
  "buildInfoId": "solc-0_8_28-92556b5e8dcd9f78c6e249b3d002500f5d5be0ee"
}